:060000000A128A110C280F
:10000800FE00030EF0000A08F1000A128A111F2AE6
:100018000A128A110F282030F601F701F801F901B8
:10002800FA018313840042300A128A111722013020
:10003800FB0083010A128A119029FB017B08093A07
:100048000319080084210A128A11DA200A128A1177
:100058002228831285108316851083128511831632
:1000680085118312051183160511F9017908831288
:10007800C20004300310C20CFF3E031D3E280F309F
:1000880089210A128A11F030831688056430C52048
:100098000A128A113030F90079088312C20004303C
:1000A8000310C20CFF3E031D54280F3089210A1289
:1000B8008A11851400008312031385100530C520AA
:1000C8000A128A1183128514000083120313851003
:1000D8000530C5200A128A11831285140000831284
:1000E800031385100530C5200A128A112030F90043
:1000F80079088312C20004300310C20CFF3E031DAE
:1001080080280F3089210A128A1185140000831271
:10011800031385100530C5200A128A112830F9000A
:1001280061210A128A110230C5200A128A110C3084
:10013800F90061210A128A110230C5200A128A11B7
:100148000130F90061210A128A110230C5200A1211
:100158008A110630F90061210A128A110230C5207D
:100168000A128A1183128515F5017508203E84004C
:10017800203083138000F50A7502031CB928F801A2
:100188000800F200F2037208FF3A03190800FA3077
:10019800F300F4010130F3020030031CF403F4020D
:1001A800730A0319740A0319C628CE287B0BFC2886
:1001B8008312031385157808203E840083130008F2
:1001C800F900F908031DEA282030F90061210A1214
:1001D8008A11F80A7808103A031DF5280230FB0046
:1001E80008007808203A031D08000430FB000800C6
:1001F8007B08023A031D1729831203138511780817
:10020800103A031D1029C030F90061210A128A1121
:1002180014298312031385118030F9006121F80134
:10022800FB01FB0A0800FB0803190D297B08043AA7
:10023800031D2F298312031385111030760203182A
:1002480028297608803E2A297608B03EF9006121DF
:100258000330FB0008007B08033A031D3D29831285
:100268000313851177080C38F90061210930FB0068
:1002780008007B08053A031D4B29831203138511D7
:100288004030F9006121F8010630FB0008007B08C6
:10029800063A031D080083120313851541088400DC
:1002A80083130008F900C10A61210A128A11F80AA9
:1002B80040307802031C0800F9287908F20004305D
:1002C8000310F20CFF3E031D64290F307205F30082
:1002D800831203130808F03973048800851400009A
:1002E8008312031385100F307905F2000808F039DE
:1002F8007204880085140000831203138510080017
:100308006630F200F20B862908004205C30008088F
:10031800F03943048800080083161F08F0390E38A6
:100328009F00831206108316061083128610831608
:1003380086108312061183160611831286118316FE
:1003480086110A128A112D200A128A11203076028B
:100358000318F6010A128A1121200A128A110A12B8
:100368008A11DF210A128A11F60AF7100A128A1175
:1003780021200A128A110A128A11DF210A128A110F
:10038800F60AF7140A128A1121200A128A110A128F
:100398008A11DF210A128A11F60A77140A128A11C1
:1003A80021200A128A110A128A11DF210A128A11DF
:1003B800F60A7710AA2983120313061CE6290610E9
:1003C8008614E82906148610E830C2000330C300FA
:1003D8000130C2020030031CC303C302420A0319DE
:1003E800430A0319072ACA30C4000230C500013085
:1003F800C4020030031CC503C502440A0319450A98
:100408000319EC29FB29A00AFA017A08203E840086
:1004180083130008013EF2007A08213E8400720826
:100428008000FA0A092A64008001840A0406031974
:1004380000340406182A71088A00700E8300FE0E24
:040448007E0E09001B
:02400E003AFF77
:00000001FF
